{
  "_format": "hh-sol-artifact-1",
  "contractName": "MyContract",
  "sourceName": "contracts/MyConract.sol",
  "abi": [
    {
      "anonymous": false,
      "inputs": [
        {
          "indexed": true,
          "internalType": "address",
          "name": "sender",
          "type": "address"
        },
        {
          "indexed": false,
          "internalType": "string",
          "name": "message",
          "type": "string"
        }
      ],
      "name": "MyEvent",
      "type": "event"
    },
    {
      "inputs": [
        {
          "internalType": "string",
          "name": "message",
          "type": "string"
        }
      ],
      "name": "emitEvent",
      "outputs": [],
      "stateMutability": "nonpayable",
      "type": "function"
    }
  ],
  "bytecode": "0x608060405234801561001057600080fd5b506102fc806100206000396000f3fe608060405234801561001057600080fd5b506004361061002b5760003560e01c8063982296a814610030575b600080fd5b61004a60048036038101906100459190610105565b61004c565b005b3373ffffffffffffffffffffffffffffffffffffffff167fb32176d17075eed8b3928b6074acca3be6f7932af328157d97cdb73ba7b2b02582604051610092919061017f565b60405180910390a250565b60006100b06100ab846101c6565b6101a1565b9050828152602081018484840111156100c857600080fd5b6100d3848285610213565b509392505050565b600082601f8301126100ec57600080fd5b81356100fc84826020860161009d565b91505092915050565b60006020828403121561011757600080fd5b600082013567ffffffffffffffff81111561013157600080fd5b61013d848285016100db565b91505092915050565b6000610151826101f7565b61015b8185610202565b935061016b818560208601610222565b610174816102b5565b840191505092915050565b600060208201905081810360008301526101998184610146565b905092915050565b60006101ab6101bc565b90506101b78282610255565b919050565b6000604051905090565b600067ffffffffffffffff8211156101e1576101e0610286565b5b6101ea826102b5565b9050602081019050919050565b600081519050919050565b600082825260208201905092915050565b82818337600083830152505050565b60005b83811015610240578082015181840152602081019050610225565b8381111561024f576000848401525b50505050565b61025e826102b5565b810181811067ffffffffffffffff8211171561027d5761027c610286565b5b80604052505050565b7f4e487b7100000000000000000000000000000000000000000000000000000000600052604160045260246000fd5b6000601f19601f830116905091905056fea2646970667358221220a5b6b5a7593750f4ac44dcc8fb7ca7ee5496dc74432c398c85c393c6cf89af7164736f6c63430008040033",
  "linkReferences": {},
  "deployedLinkReferences": {}
}