{
  "_format": "hh-sol-artifact-1",
  "contractName": "DurianShop",
  "sourceName": "contracts/DurianShop.sol",
  "abi": [
    {
      "inputs": [],
      "stateMutability": "nonpayable",
      "type": "constructor"
    },
    {
      "anonymous": false,
      "inputs": [
        {
          "indexed": false,
          "internalType": "address",
          "name": "buyer",
          "type": "address"
        },
        {
          "indexed": false,
          "internalType": "uint256",
          "name": "quantity",
          "type": "uint256"
        }
      ],
      "name": "DurianPurchase",
      "type": "event"
    },
    {
      "inputs": [
        {
          "internalType": "uint256",
          "name": "quantity",
          "type": "uint256"
        }
      ],
      "name": "buyDurian",
      "outputs": [],
      "stateMutability": "payable",
      "type": "function"
    },
    {
      "inputs": [],
      "name": "durianPrice",
      "outputs": [
        {
          "internalType": "uint256",
          "name": "",
          "type": "uint256"
        }
      ],
      "stateMutability": "view",
      "type": "function"
    },
    {
      "inputs": [],
      "name": "durianStock",
      "outputs": [
        {
          "internalType": "uint256",
          "name": "",
          "type": "uint256"
        }
      ],
      "stateMutability": "view",
      "type": "function"
    },
    {
      "inputs": [],
      "name": "owner",
      "outputs": [
        {
          "internalType": "address",
          "name": "",
          "type": "address"
        }
      ],
      "stateMutability": "view",
      "type": "function"
    }
  ],
  "bytecode": "0x608060405234801561001057600080fd5b50336000806101000a81548173ffffffffffffffffffffffffffffffffffffffff021916908373ffffffffffffffffffffffffffffffffffffffff16021790555066038d7ea4c6800060018190555060646002819055506104e4806100766000396000f3fe60806040526004361061003f5760003560e01c80637d00e6ac146100445780638da5cb5b1461006f578063a1fcc7171461009a578063cd8d4060146100b6575b600080fd5b34801561005057600080fd5b506100596100e1565b6040516100669190610320565b60405180910390f35b34801561007b57600080fd5b506100846100e7565b604051610091919061029c565b60405180910390f35b6100b460048036038101906100af919061020f565b61010b565b005b3480156100c257600080fd5b506100cb6101f4565b6040516100d89190610320565b60405180910390f35b60015481565b60008054906101000a900473ffffffffffffffffffffffffffffffffffffffff1681565b60015481610119919061034c565b341461015a576040517f08c379a000000000000000000000000000000000000000000000000000000000815260040161015190610300565b60405180910390fd5b60025481111561019f576040517f08c379a0000000000000000000000000000000000000000000000000000000008152600401610196906102e0565b60405180910390fd5b80600260008282546101b191906103a6565b925050819055507fbad8b06fe7d700d57ca0b0e3d59d667e6840442db7ad4472c3275a93621f1fa733826040516101e99291906102b7565b60405180910390a150565b60025481565b60008135905061020981610497565b92915050565b60006020828403121561022157600080fd5b600061022f848285016101fa565b91505092915050565b610241816103da565b82525050565b6000610254601b8361033b565b915061025f82610445565b602082019050919050565b600061027760158361033b565b91506102828261046e565b602082019050919050565b6102968161040c565b82525050565b60006020820190506102b16000830184610238565b92915050565b60006040820190506102cc6000830185610238565b6102d9602083018461028d565b9392505050565b600060208201905081810360008301526102f981610247565b9050919050565b600060208201905081810360008301526103198161026a565b9050919050565b6000602082019050610335600083018461028d565b92915050565b600082825260208201905092915050565b60006103578261040c565b91506103628361040c565b9250817fffffffffffffffffffffffffffffffffffffffffffffffffffffffffffffffff048311821515161561039b5761039a610416565b5b828202905092915050565b60006103b18261040c565b91506103bc8361040c565b9250828210156103cf576103ce610416565b5b828203905092915050565b60006103e5826103ec565b9050919050565b600073ffffffffffffffffffffffffffffffffffffffff82169050919050565b6000819050919050565b7f4e487b7100000000000000000000000000000000000000000000000000000000600052601160045260246000fd5b7f4e6f7420656e6f7567682064757269616e20696e2073746f636b2e0000000000600082015250565b7f496e73756666696369656e74207061796d656e742e0000000000000000000000600082015250565b6104a08161040c565b81146104ab57600080fd5b5056fea2646970667358221220ff46b3d26e05c9d3f1acacd016154ee5f6cc825a1a2ae621ca8f8cad6375ca5764736f6c63430008040033",
  "linkReferences": {},
  "deployedLinkReferences": {}
}