{
  "_format": "hh-sol-artifact-1",
  "contractName": "MyContract",
  "sourceName": "contracts/MyConract.sol",
  "abi": [
    {
      "anonymous": false,
      "inputs": [
        {
          "indexed": true,
          "internalType": "address",
          "name": "buyer",
          "type": "address"
        },
        {
          "indexed": false,
          "internalType": "uint256",
          "name": "productId",
          "type": "uint256"
        },
        {
          "indexed": false,
          "internalType": "uint256",
          "name": "price",
          "type": "uint256"
        }
      ],
      "name": "ProductBought",
      "type": "event"
    },
    {
      "inputs": [
        {
          "internalType": "uint256",
          "name": "productId",
          "type": "uint256"
        },
        {
          "internalType": "uint256",
          "name": "price",
          "type": "uint256"
        }
      ],
      "name": "buyProduct",
      "outputs": [],
      "stateMutability": "payable",
      "type": "function"
    }
  ],
  "bytecode": "0x608060405234801561001057600080fd5b50610173806100206000396000f3fe60806040526004361061001e5760003560e01c806353b6286614610023575b600080fd5b61003d600480360381019061003891906100a8565b61003f565b005b3373ffffffffffffffffffffffffffffffffffffffff167fc032f62758cac23a902e648ab54b6825665b9bc19e7cd0a8ab915cbf3eea4fa083836040516100879291906100f3565b60405180910390a25050565b6000813590506100a281610126565b92915050565b600080604083850312156100bb57600080fd5b60006100c985828601610093565b92505060206100da85828601610093565b9150509250929050565b6100ed8161011c565b82525050565b600060408201905061010860008301856100e4565b61011560208301846100e4565b9392505050565b6000819050919050565b61012f8161011c565b811461013a57600080fd5b5056fea26469706673582212201b8b5e8ffd241d194c01b56c5b0aaf4a16587221977f1498a04951907d420d3064736f6c63430008040033",
  "linkReferences": {},
  "deployedLinkReferences": {}
}